:020000040000FA
:06000000B3EF08F012004E
:06100000B3EF08F012003E
:0610080074EF08F0120075
:061018007BEF08F012005E
:02102A000000C4
:04102C002A0EF66E24
:10103000100EF76E000EF86E00010900F550656F96
:101040000900F550666F03E1656701D03DD00900E6
:10105000F550606F0900F550616F0900F550626F3F
:1010600009000900F550E96E0900F550EA6E090023
:1010700009000900F550636F0900F550646F09001D
:101080000900F6CF67F0F7CF68F0F8CF69F060C0DD
:10109000F6FF61C0F7FF62C0F8FF0001635302E191
:1010A000645307E00900F550EE6E6307F8E2640749
:1010B000F9D767C0F6FF68C0F7FF69C0F8FF000105
:0A10C0006507000E665BBFD7120043
:0610CA00939093908A80D0
:1010D000900EE66E8CEC08F0E5528A90900EE66E6B
:1010E0008CEC08F0E552F3D7DACFE4FFE652E55294
:1010F000E5CFDAFF1100D8CFE4FFE0CFE4FFE46EE4
:10110000DACFE4FFE652E552E5CFDAFFE550E5CF6E
:08111000E0FFE5CFD8FF10005D
:08111800FF0EE350036EEF0E21
:1011200001D0F30EE76EE72E93EF08F00C0E026E7F
:10113000E76AE72E99EF08F0022E98EF08F0032EE9
:0611400091EF08F012001F
:0A114600000EF36E00EE00F0080E3C
:1011500001D81200EA6002D0EE6AFCD7F350E960D1
:061160001200EE6AFCD74C
:0A11660013EE00F023EE00F0F86A2B
:10117000019C16EC08F0C1EC08F065EC08F0FBD718
:0211800012005B
:02118200120059
:00000001FF
